{
  "transactions": [
    {
      "hash": "0x3507d15e2b89c69c19e8ab1dba08ac54d39992cbf47deb536db17c1294ab48bc",
      "transactionType": "CALL",
      "contractName": null,
      "contractAddress": "0x6c7acc80edab86fcca266ab49135f3bba08961d4",
      "function": "gradePoints(uint256,string)",
      "arguments": [
        "1",
        "\"Journal Paper\""
      ],
      "transaction": {
        "from": "0xb77d30571fc6c253e645584d4deef40c139a7900",
        "to": "0x6c7acc80edab86fcca266ab49135f3bba08961d4",
        "gas": "0x11bde",
        "value": "0x0",
        "input": "0xcb59056b00000000000000000000000000000000000000000000000000000000000000010000000000000000000000000000000000000000000000000000000000000040000000000000000000000000000000000000000000000000000000000000000d4a6f75726e616c20506170657200000000000000000000000000000000000000",
        "nonce": "0x4",
        "chainId": "0xaa36a7"
      },
      "additionalContracts": [],
      "isFixedGasLimit": false
    }
  ],
  "receipts": [
    {
      "status": "0x1",
      "cumulativeGasUsed": "0x9668e6",
      "logs": [],
      "logsBloom": "0x00000000000000000000000000000000000000000000000000000000000000000000000000000000000000000000000000000000000000000000000000000000000000000000000000000000000000000000000000000000000000000000000000000000000000000000000000000000000000000000000000000000000000000000000000000000000000000000000000000000000000000000000000000000000000000000000000000000000000000000000000000000000000000000000000000000000000000000000000000000000000000000000000000000000000000000000000000000000000000000000000000000000000000000000000000000",
      "type": "0x2",
      "transactionHash": "0x3507d15e2b89c69c19e8ab1dba08ac54d39992cbf47deb536db17c1294ab48bc",
      "transactionIndex": "0x49",
      "blockHash": "0x3b1c8171b2a8b40f67cca4755d1b23dcdfbd9e8845fc606f4168cdce56399ced",
      "blockNumber": "0x58402c",
      "gasUsed": "0xc219",
      "effectiveGasPrice": "0x3ee2899e",
      "from": "0xb77d30571fc6c253e645584d4deef40c139a7900",
      "to": "0x6c7acc80edab86fcca266ab49135f3bba08961d4",
      "contractAddress": null
    }
  ],
  "libraries": [],
  "pending": [],
  "returns": {},
  "timestamp": 1714159362,
  "chain": 11155111,
  "commit": "68d275d"
}