{
  "transactions": [
    {
      "hash": "0xdfa84a5b7f5ceeb1dd699387a71d03a18003d6fe3d9c0589d0770ff5e6bb8895",
      "transactionType": "CALL",
      "contractName": null,
      "contractAddress": "0x714607c3dc6d3983574be6dcbccd368658646899",
      "function": "gradePoints(uint256,string)",
      "arguments": [
        "1",
        "\"Journal Paper\""
      ],
      "transaction": {
        "from": "0xb77d30571fc6c253e645584d4deef40c139a7900",
        "to": "0x714607c3dc6d3983574be6dcbccd368658646899",
        "gas": "0x11bde",
        "value": "0x0",
        "input": "0xcb59056b00000000000000000000000000000000000000000000000000000000000000010000000000000000000000000000000000000000000000000000000000000040000000000000000000000000000000000000000000000000000000000000000d4a6f75726e616c20506170657200000000000000000000000000000000000000",
        "nonce": "0x8",
        "chainId": "0xaa36a7"
      },
      "additionalContracts": [],
      "isFixedGasLimit": false
    }
  ],
  "receipts": [
    {
      "status": "0x1",
      "cumulativeGasUsed": "0xbac399",
      "logs": [],
      "logsBloom": "0x00000000000000000000000000000000000000000000000000000000000000000000000000000000000000000000000000000000000000000000000000000000000000000000000000000000000000000000000000000000000000000000000000000000000000000000000000000000000000000000000000000000000000000000000000000000000000000000000000000000000000000000000000000000000000000000000000000000000000000000000000000000000000000000000000000000000000000000000000000000000000000000000000000000000000000000000000000000000000000000000000000000000000000000000000000000",
      "type": "0x2",
      "transactionHash": "0xdfa84a5b7f5ceeb1dd699387a71d03a18003d6fe3d9c0589d0770ff5e6bb8895",
      "transactionIndex": "0x4a",
      "blockHash": "0x3af06c9cb5aec85bb1f106fe1596eac1a9a4e3983bd3e1e0a959952ed3f0c04b",
      "blockNumber": "0x585701",
      "gasUsed": "0xc219",
      "effectiveGasPrice": "0x45a453bd",
      "from": "0xb77d30571fc6c253e645584d4deef40c139a7900",
      "to": "0x714607c3dc6d3983574be6dcbccd368658646899",
      "contractAddress": null
    }
  ],
  "libraries": [],
  "pending": [],
  "returns": {},
  "timestamp": 1714231864,
  "chain": 11155111,
  "commit": "b5efc46"
}