{
  "transactions": [
    {
      "hash": "0xe587ba0f4a8f1dd9570d0bbd88eb886a5750183eb68328fdbb089ab0167d6a50",
      "transactionType": "CALL",
      "contractName": null,
      "contractAddress": "0x6c7acc80edab86fcca266ab49135f3bba08961d4",
      "function": "mint(address,(uint256,string,string,string))",
      "arguments": [
        "0x4E9262D749f50d2817E54b411272e1E71Be7B20A",
        "(2021, \"Alice\", \"WILP\", \"Masters\")"
      ],
      "transaction": {
        "from": "0xb77d30571fc6c253e645584d4deef40c139a7900",
        "to": "0x6c7acc80edab86fcca266ab49135f3bba08961d4",
        "gas": "0x42610",
        "value": "0x0",
        "input": "0x2d4cec450000000000000000000000004e9262d749f50d2817e54b411272e1e71be7b20a000000000000000000000000000000000000000000000000000000000000004000000000000000000000000000000000000000000000000000000000000007e5000000000000000000000000000000000000000000000000000000000000008000000000000000000000000000000000000000000000000000000000000000c000000000000000000000000000000000000000000000000000000000000001000000000000000000000000000000000000000000000000000000000000000005416c696365000000000000000000000000000000000000000000000000000000000000000000000000000000000000000000000000000000000000000000000457494c500000000000000000000000000000000000000000000000000000000000000000000000000000000000000000000000000000000000000000000000074d61737465727300000000000000000000000000000000000000000000000000",
        "nonce": "0x3",
        "chainId": "0xaa36a7"
      },
      "additionalContracts": [],
      "isFixedGasLimit": false
    }
  ],
  "receipts": [
    {
      "status": "0x1",
      "cumulativeGasUsed": "0xdf8ca2",
      "logs": [
        {
          "address": "0x6c7acc80edab86fcca266ab49135f3bba08961d4",
          "topics": [
            "0xddf252ad1be2c89b69c2b068fc378daa952ba7f163c4a11628f55a4df523b3ef",
            "0x0000000000000000000000000000000000000000000000000000000000000000",
            "0x0000000000000000000000004e9262d749f50d2817e54b411272e1e71be7b20a",
            "0x0000000000000000000000000000000000000000000000000000000000000001"
          ],
          "data": "0x",
          "blockHash": "0x314e528a8a9a4b93899596ab1c70a8b3d4d640bfd7caec9ca7aba12b14fc21d4",
          "blockNumber": "0x584019",
          "transactionHash": "0xe587ba0f4a8f1dd9570d0bbd88eb886a5750183eb68328fdbb089ab0167d6a50",
          "transactionIndex": "0x6c",
          "logIndex": "0x101",
          "removed": false
        }
      ],
      "logsBloom": "0x00000000000000000000000004000000000000000100000000000000000000000000000000000000000000000000000000000000000000000000000000040000000000000000000000000008000000000000000000040000000000000000000000000001020000000000000000000800000000000000001000000010000000000001000000000000000000000000000000000000000000000000000000000000000000000000000000000000000000000000000000000000000000000000000000000002000000000000000000000000000000000000000000000000000060000000000000000000000000000000000000000000004000000000000000000000",
      "type": "0x2",
      "transactionHash": "0xe587ba0f4a8f1dd9570d0bbd88eb886a5750183eb68328fdbb089ab0167d6a50",
      "transactionIndex": "0x6c",
      "blockHash": "0x314e528a8a9a4b93899596ab1c70a8b3d4d640bfd7caec9ca7aba12b14fc21d4",
      "blockNumber": "0x584019",
      "gasUsed": "0x2d633",
      "effectiveGasPrice": "0x3f88a6e4",
      "from": "0xb77d30571fc6c253e645584d4deef40c139a7900",
      "to": "0x6c7acc80edab86fcca266ab49135f3bba08961d4",
      "contractAddress": null
    }
  ],
  "libraries": [],
  "pending": [],
  "returns": {},
  "timestamp": 1714159118,
  "chain": 11155111,
  "commit": "68d275d"
}