{
  "transactions": [
    {
      "hash": "0x7a2686d60921fda42ac9349275104b397d5146636478b40d88e5bbaf67e3ab56",
      "transactionType": "CALL",
      "contractName": null,
      "contractAddress": "0x714607c3dc6d3983574be6dcbccd368658646899",
      "function": "mint(address,(uint256,string,string,string))",
      "arguments": [
        "0x4E9262D749f50d2817E54b411272e1E71Be7B20A",
        "(2021, \"Alice\", \"WILP\", \"Masters\")"
      ],
      "transaction": {
        "from": "0xb77d30571fc6c253e645584d4deef40c139a7900",
        "to": "0x714607c3dc6d3983574be6dcbccd368658646899",
        "gas": "0x3ec68",
        "value": "0x0",
        "input": "0x2d4cec450000000000000000000000004e9262d749f50d2817e54b411272e1e71be7b20a000000000000000000000000000000000000000000000000000000000000004000000000000000000000000000000000000000000000000000000000000007e5000000000000000000000000000000000000000000000000000000000000008000000000000000000000000000000000000000000000000000000000000000c000000000000000000000000000000000000000000000000000000000000001000000000000000000000000000000000000000000000000000000000000000005416c696365000000000000000000000000000000000000000000000000000000000000000000000000000000000000000000000000000000000000000000000457494c500000000000000000000000000000000000000000000000000000000000000000000000000000000000000000000000000000000000000000000000074d61737465727300000000000000000000000000000000000000000000000000",
        "nonce": "0x7",
        "chainId": "0xaa36a7"
      },
      "additionalContracts": [],
      "isFixedGasLimit": false
    }
  ],
  "receipts": [
    {
      "status": "0x1",
      "cumulativeGasUsed": "0x86f13e",
      "logs": [
        {
          "address": "0x714607c3dc6d3983574be6dcbccd368658646899",
          "topics": [
            "0xddf252ad1be2c89b69c2b068fc378daa952ba7f163c4a11628f55a4df523b3ef",
            "0x0000000000000000000000000000000000000000000000000000000000000000",
            "0x0000000000000000000000004e9262d749f50d2817e54b411272e1e71be7b20a",
            "0x0000000000000000000000000000000000000000000000000000000000000001"
          ],
          "data": "0x",
          "blockHash": "0x0116b98fc9e83f45f6166f3360ce7bde44b8b5f300052aa6e1e4d8995b98a312",
          "blockNumber": "0x5856fa",
          "transactionHash": "0x7a2686d60921fda42ac9349275104b397d5146636478b40d88e5bbaf67e3ab56",
          "transactionIndex": "0x4e",
          "logIndex": "0xc9",
          "removed": false
        }
      ],
      "logsBloom": "0x00000000000000000000000000000000000000000100000000000000000000000000000000000000000000000000000000000000000000000000000000040000000000000000000000020008000000000000000000040000000000000000000000000000020000000000000000000800000000000000000000000010000000000001000000000000000000000000000000000000000000000000000000000000000000000000000000000000000000000000000000000000000000000000000000000002000000000000000000000000000000000000000004000000800060000000000000000000000000000000000000000000004000000000000000000000",
      "type": "0x2",
      "transactionHash": "0x7a2686d60921fda42ac9349275104b397d5146636478b40d88e5bbaf67e3ab56",
      "transactionIndex": "0x4e",
      "blockHash": "0x0116b98fc9e83f45f6166f3360ce7bde44b8b5f300052aa6e1e4d8995b98a312",
      "blockNumber": "0x5856fa",
      "gasUsed": "0x2d72d",
      "effectiveGasPrice": "0x3fc1d964",
      "from": "0xb77d30571fc6c253e645584d4deef40c139a7900",
      "to": "0x714607c3dc6d3983574be6dcbccd368658646899",
      "contractAddress": null
    }
  ],
  "libraries": [],
  "pending": [],
  "returns": {},
  "timestamp": 1714231768,
  "chain": 11155111,
  "commit": "b5efc46"
}